S0150000535749544348676C6F776C65642E737265634F
S11300000C942A000C9434000C9434000C943400A6
S11300100C9434000C9434000C9434000C9434008C
S11300200C9434000C9434000C9434000C9434007C
S11300300C9434000C9434000C9434000C9434006C
S11300400C9434000C9434000C9434000C9434005C
S11300500C94340011241FBECFE5D4E0DEBFCDBF25
S11300600E94C0000C944C010C9400009C01207F61
S113007033272C5F25BBE9EFF0E03197F1F700C09F
S1130080000095B3945095BB8295807F8C5F85BBAF
S113009089EF90E00197F1F700C0000085B3845028
S11300A085BB08959C01207F33272B5F25BBE9EF97
S11300B0F0E03197F1F700C0000025B3245025BBD0
S11300C082959295907F9827807F98278B5F85BB38
S11300D089EF90E00197F1F700C0000085B38450E8
S11300E085BB08950F931F93CF93DF93EC01009783
S11300F061F580E390E00E94520084E090E00E9469
S1130100360028C09E01ADECBCEC0E9440018C017D
S11301101695079516950795169507959801220F3C
S1130120331FC801880F991F880F991F880F991FC3
S1130130820F931F9E01281B390BC901C0960E9490
S11301405200E8012097F1F605C084E090E00E9497
S11301503600D8CFDF91CF911F910F91089582E09F
S113016090E00E94360088E290E00E9436008CE025
S113017090E00E94360086E090E00E9436000895E8
S11301801ABA8FEF87BB8BBB84BB0E94AF00C1E060
S113019000E86894CC24C6F86894DD24D5F8689403
S11301A0EE24E4F86894FF24F3F814E0D2E089B371
S11301B08E3F51F4C8BB80E890E00E94360081E095
S11301C090E00E947200F3CF89B38D3F51F4D8BB05
S11301D081E890E00E94360082E090E00E94720084
S11301E0E6CF89B38B3F51F418BB82E890E00E94BC
S11301F0360083E090E00E947200D9CF89B3873F34
S113020051F4F8BA83E890E00E94360084E090E06C
S11302100E947200CCCF89B38F3E51F4E8BA84E8CF
S113022090E00E94360085E090E00E947200BFCF0B
S113023089B38F3D51F4D8BA86E890E00E94360025
S113024086E090E00E947200B2CF89B38F3B51F4F4
S1130250C8BA87E890E00E94360087E090E00E94E8
S11302607200A5CF89B38F3709F0A1CF08BB88E806
S113027090E00E94360088E090E00E94720097CFE0
S1130280A29FB001B39FC001A39F01D0B29F700D84
S10F0290811D1124911D0895F894FFCFE6
S9030000FC
